:060000000A128A111A2FFA
:100E340083010A128A11C12FF201F30100307302F7
:100E4400323003197202031C282F292F2B2F532F02
:100E5400532F01308312031386000830F1008730CA
:100E6400F000F00B332FF10B332F831203138601A1
:100E7400B530F100C630F000F00B3E2FF10B3E2FE1
:100E840064000130F2070318F30A0030F30700305E
:100E94007302323003197202031C512F522F2B2F6D
:100EA400532F0800F201F3010030730232300319AA
:100EB4007202031C5E2F5F2F612F892F892F01304F
:100EC4008312031386000F30F1001E30F000F00B84
:100ED400692FF10B692F831203138601AF30F100E0
:100EE4002E30F000F00B742FF10B742F792F01309A
:100EF400F2070318F30A0030F307003073023230AC
:100F040003197202031C872F882F612F892F080071
:100F1400F201F30100307302323003197202031C30
:100F2400942F952F972FC02FC02F013083120313B6
:100F340086001530F100B530F000F00B9F2FF10B57
:100F44009F2FA42F831203138601A830F10097303A
:100F5400F000F00BAB2FF10BAB2FB02F0130F207E9
:100F64000318F30A0030F307003073023230031918
:100F74007202031CBE2FBF2F972FC02F08008316A9
:100F840003138601831203138601C82F0A128A11E0
:100F94001E270A128A112530F600C830F5009E304B
:100FA400F400F40BD32FF50BD32FF60BD32F0A1227
:100FB4008A1154270A128A112530F600C830F50028
:100FC4009E30F400F40BE42FF50BE42FF60BE42F22
:100FD4000A128A118A270A128A112530F600C830AB
:100FE400F5009E30F400F40BF52FF50BF52FF60BFE
:0C0FF400F52FC82FC82F0A128A11002800
:02400E003A3F37
:00000001FF
